:020000040800F2
:10000000F0040020D5000008B5050008B50300087D
:1000100000000000000000000000000000000000E0
:10002000000000000000000000000000230A00089B
:100030000000000000000000210A0008250A000856
:10004000000000000000000000000000E7000008C1
:10005000E700000891030008E7000008A303000878
:100060000000000000000000000000000000000090
:10007000E7000008850A0008E7000008000000000B
:10008000000000008D0500080000000000000000D6
:1000900000000000590A000800000000E700000806
:1000A00000000000E700000800000000E700000872
:1000B0000000000000000000000000000000000040
:1000C0000348854600F03CF80048004765010008F9
:1000D000F00400200448804704480047FEE7FEE79C
:1000E000FEE7FEE7FEE7FEE72D0A0008C100000874
:1000F00030B50B46014600202022012409E00D46C0
:10010000D5409D4205D31D469540491B2546954047
:1001100040191546521E002DF1DC30BDD2B201E06F
:100120000270401C491EFBD270470022F6E710B552
:1001300013460A4604461946FFF7F0FF204610BD55
:10014000064C0125064E05E0E36807CC2B430C3C2A
:1001500098471034B442F7D3FFF7B6FF3C260008A7
:100160005C26000870B50125ED06002406E0A0001D
:100170002858A100064A5050601CC4B2302CF6DB4F
:10018000012040070349886000F0F2FE002070BDA6
:100190000000002000ED00E000B587B00120C002A3
:1001A000234909680143224A116011460968014048
:1001B000019100BF00BF142102A8FFF7B6FF002085
:1001C00005900390172168460181182004900021B2
:1001D0006846017602A9174800F09AF900BF01208D
:1001E000C0431449086100BF00BF08460068802171
:1001F00008431049086000BF00BF0846C0680121DD
:1002000008430C49C86000BF00BF084600680121D0
:1002100008430849086000BF0D2001218140064ABB
:10022000116000BF002100F0C7F907B000BD000059
:1002300040100240002C014000E100E000B587B012
:1002400023201249496B0143104A51631146496BFF
:100250000140009100BF00BF5015019001200290A5
:1002600003200390002004900120059001A905209F
:10027000000700F0AFF8022001900020029001A9D1
:10028000034800F0A7F807B000BD000000100240CE
:100290000004005010B500BF334800680121090474
:1002A00008433149086000BF0C2009690C229143C2
:1002B00001432D4A116100BF00BF00BF2A480068FA
:1002C000012149040840400C0028F6D000202649AE
:1002D00089680F22120291430143234A916000BFB3
:1002E000012011468968C908C9000143916000BF17
:1002F00000BF00BF1C488068382108400828F8D19A
:1003000000201A490968490849000143174A116049
:1003100000BF00BF144989680722120391430143BB
:10032000114A916000BF124800F0ECF8104800F04C
:10033000D5F87D21C9000F480068FFF7D9FE0446B3
:10034000601E0D49884200D90CE0601E0B494861CF
:100350000321081F00F030F90020084988610720B8
:10036000086100BF10BD00000010024000200240E4
:1003700000366E01C0000020FFFFFF0000E000E03B
:1003800010B5FFF787FFFFF759FFFFF705FF10BD17
:1003900010B5012000F016F8012801D100F00CF88A
:1003A00010BD10B5802000F00DF8802801D100F0BC
:1003B00003F810BD00BFFEE70149C86070470000A8
:1003C0000018024001460248C0680840704700001B
:1003D00000180240F0B502460B46002661E00124F9
:1003E000B4401968214000295AD0586814680D4655
:1003F0004D436F00ED19AC430D464D4345432C432F
:10040000146000BF5868012802D0586802280DD136
:10041000986894680D464D436F00ED19AC430D4646
:100420004D4345432C43946000BF00BF1869D46816
:100430000D464D436F00ED19AC430D464D4345430A
:100440002C43D46000BF5868022829D1FF2911D855
:100450005869146A0D464D434D434D432F017D1B92
:10046000AC430D464D434D434D4345432C4314622D
:1004700000BF15E05F69080A40430C0A60430C0A9C
:1004800060430401241A506AA0430C0A64430D0A15
:100490006C430D0A6C437C432043506200BF00BF95
:1004A000761C1868F040002899D15868012802D0BD
:1004B0005868022809D1DC681868556885430746E2
:1004C00067433D43556000BF00BF0120F0BD81621E
:1004D00070478161704781617047000070B50446C4
:1004E0007D25ED0029462046FFF702FE401E044907
:1004F0004861002088610520086100BF70BD0000D0
:1005000000E000E00149086070470000C0000020E2
:1005100010B5024613681748824205D11846702468
:10052000A0434C68204303461248824202D012483E
:10053000824206D1184603242402A043CC682043FB
:10054000034613608868D06200BF0888906200BFCD
:100550000848824202D00848824203D1087C1063D6
:1005600000BF00BF00BF506901242043506100BF9D
:10057000012010BD002C0140004401400146C86824
:10058000C007C00F012250405040704700BF0848CC
:100590000068022108404008002807D000BF044836
:1005A000406808430249486000BF00BF7047000030
:1005B000007C00407047000010B5002819DA1A4A84
:1005C00003071B0F083B9B089B00D2588307DC0ED8
:1005D000FF23A3409A438B071B0E8407E40EA3401E
:1005E0001A43114B0407240F083CA408A4001A5115
:1005F00018E00E4A03231B02D21883089B00D2582E
:100600008307DC0EFF23A3409A438B071B0E84074E
:10061000E40EA3401A43054B032424021B1984084B
:10062000A4001A5110BD00001CED00E000E100E044
:1006300070B5002419E02046B030C1B2002000F0AF
:10064000F5FC0021084600F0F1FC1021002000F02C
:10065000EDFC002505E00021402000F0E7FC681CCF
:10066000C5B2802DF7DB601CC4B2042CE3DB70BD87
:1006700010B501F02FF9C82000F052FCAE21002087
:1006800000F0D4FC0021084600F0D0FC102100202E
:1006900000F0CCFC4021002000F0C8FCB02100207C
:1006A00000F0C4FC8121002000F0C0FCFF210020EC
:1006B00000F0BCFCA121002000F0B8FCA621002025
:1006C00000F0B4FCA821002000F0B0FC1F210020A5
:1006D00000F0ACFCC821002000F0A8FCD3210020D1
:1006E00000F0A4FC0021084600F0A0FCD521002069
:1006F00000F09CFC8021002000F098FCD921002013
:1007000000F094FCF121002000F090FCDA210020A0
:1007100000F08CFC0221002000F088FCDB2100208E
:1007200000F084FC4021002000F080FC8D2100209E
:1007300000F07CFC1421002000F078FC2021002037
:1007400000F074FC1021002000F070FCA4210020B7
:1007500000F06CFCAF21002000F068FCFFF768FFA0
:1007600010BD70B504460D462846B030C1B2002019
:1007700000F05CFCF0202040001101461031002008
:1007800000F054FC2107090F002000F04FFC70BD61
:10079000FFB581B00F4615460026002428462038B4
:1007A000C6B201987F2803DD00200190B81CC7B2B3
:1007B000049803286CD1002F02D101986C2801DB2A
:1007C00005B0F0BD302D01DB392D04DD2E2D02D01A
:1007D0002D2D00D0F4E7302D05DB392D03DC284624
:1007E0003038C6B204E02E2D01D10A2600E00B26D7
:1007F00000210198FFF7B5FF00240AE0B0001422A1
:100800005043414A8018015D402000F00FFC601CFD
:10081000C4B2142CF2DB01210198FFF7A2FF0024DF
:100820000BE0B000401C14225043374A8018015D91
:10083000402000F0FBFB601CC4B2142CF1DB022151
:100840000198FFF78EFF00240BE0B000801C1422FB
:1008500050432D4A8018015D402000F0E7FB601CEA
:10086000C4B2142CF1DB03210198FFF77AFF0024B6
:100870000BE0B000C01C14225043234A8018015DD5
:10088000402000F0D3FB601CC4B2142CF1DB39E033
:100890000498012824D139460198FFF762FF00240B
:1008A00008E030010019194A115C402000F0BEFB3D
:1008B000601CC4B2082CF4DB781CC1B20198FFF7AD
:1008C00050FF002409E03001001908300F4A115C84
:1008D000402000F0ABFB601CC4B2082CF3DB11E03D
:1008E00039460198FFF73DFF002409E006207043D8
:1008F000074A8018015D402000F098FB601CC4B2DC
:10090000062CF3DB00BF5BE758220008681C0008D8
:10091000401A0008FFB581B004460F461546002670
:1009200016E0AA5D39462046049BFFF731FF049884
:10093000032803D120461430C4B202E02046083018
:10094000C4B2782C02DD0024B81CC7B2701CC6B239
:10095000A85D0028E5D105B0F0BD000010B529481C
:100960000088002804DD27480088401E25490880AB
:1009700025480088002804DD23480088401E2249BD
:10098000088021480088002828D17D20C0001E4909
:1009900008801E480078401C1C49087001201C4932
:1009A00008701A4800783B2818DD002017490870A5
:1009B00018480078401C17490870084600783B2802
:1009C0000CDD0020087014480078401C12490870A3
:1009D00008460078632801DD002008700F48008871
:1009E00000280EDD0D480088401E0C49088008468E
:1009F0000088002805D10121490205200007FFF7E2
:100A000068FD10BDC4000020CC000020C7000020FD
:100A1000C6000020C8000020C9000020CA00002035
:100A20007047704710B5FFF799FF10BD0748406841
:100A3000000C000401214903401805494968084396
:100A400002494860C80303498860704700100240AB
:100A5000000FFF1F00ED00E010B509480069C00756
:100A6000C00F00280BD00648FFF788FD002806D0ED
:100A700000BF0120C0430249086100BF00BF10BD94
:100A80000044014010B509480069C007C00F0028A4
:100A90000BD00648FFF772FD002806D000BF0120EA
:100AA000C0430249086100BF00BF10BD002C0140D7
:100AB0000FB410B504A9074B02AA039800F082F8FE
:100AC000044602A9002000F025FA204610BC08BC0C
:100AD00004B01847150F000802E008C8121F08C12B
:100AE000002AFAD170477047002001E001C1121FAF
:100AF000002AFBD170470FB470B50C9C002516E09E
:100B000080202040002802D00898804701E0099802
:100B100080476006040E049880470A98804704982E
:100B200080470B98804704988047681CC5B2082D01
:100B3000E6DB70BC08BC04B018470FB410B50698CB
:100B40008047089880470298804707988047029816
:100B50008047099880470298804710BC08BC04B0C1
:100B600018470FB410B50798804708988047029837
:100B70008047069880470298804710BC08BC04B0A4
:100B800018470FB470B50025059880470A9880472C
:100B900004988047002405E0601CC4B2FA2C01DDF3
:100BA000012503E0079880470128F5D000BF0B9886
:100BB00080470498804706988047284670BC08BC48
:100BC00004B01847FFB58FB00546002606E025287B
:100BD0000AD0129A119990476D1C761C287800282B
:100BE000F5D1304613B0F0BD002402940121B54A7E
:100BF000009400E004436D1C2B780846203B98408D
:100C00001042F7D128782A280ED0022228780146EF
:100C10003039092916D802990A2359433039401826
:100C200014436D1C0290F1E7109802C802911090D5
:100C3000002904DA012040030443484202900220C4
:100C400004436D1C28782E2817D1042004436878AB
:100C50006D1C2A280CD110986D1C02C800911090B0
:100C60000BE000990A225143303940186D1C009066
:100C70002878014630390929F3D928786C2810D012
:100C800006DC4C281AD068280ED06A2817D104E058
:100C9000742813D07A2812D110E0012040050443B3
:100CA0000CE00121090501E0032109050C436978E5
:100CB000814203D10120000524186D1C6D1C287889
:100CC000692874D006DC00288BD0632827D06428DC
:100CD00006D16CE06E2808D073282CD0752878D007
:100CE000129A11999047761C5FE06002400F02282B
:100CF00009D003280DD00428109801680DD00E608B
:100D0000001D109051E01098F21701680E604A60C3
:100D1000F6E7109801680E80F2E70E70F0E7109881
:100D20006A4601781173001D10900020507303A8CB
:100D30000190012005E0109802C801911090002058
:100D4000C04361070CD5002700E07F1C00998F424B
:100D50000FDA8742F9DB0199C95D0029F5D108E076
:100D6000002700E07F1C8742FCDB0199C95D002958
:100D7000F8D102982146C01B0290129B119A00F0F4
:100D8000B3F88019C61907E0019801990078491C49
:100D90000191129A119990477F1EF5D22146129B1C
:100DA000119A029800F090F886196D1C16E70A2037
:100DB0000190109901C910916102490F032900D1D6
:100DC00000B2042900D140B2002803DA40422D21AC
:100DD00003E00DE0210504D52B216A4611730121A2
:100DE00003E0E10711D02021F7E70CAF0C9114E0EC
:100DF0000A200190109901C910916102490F03293D
:100E000000D180B2042900D1C0B20021EDE70199E0
:100E1000FFF76EF930317F1E39700028F7D104A832
:100E2000C01B20300190600704D5012000048443DA
:100E3000009801E0012000900199884201DD401AEC
:100E400000E00020411800900C9809180298401A00
:100E50000290E00306D42146129B119A029800F0FA
:100E600043F8861900200D9008E003A9085C129A47
:100E7000119990470D98401C761C0D900C99884252
:100E8000F3DBE0030CD52146129B119A029800F087
:100E90002BF8861904E0129A302011999047761C9D
:100EA0000099481E00900029F5DC05E03878129A78
:100EB0007F1C11999047761C0199481E01900029CA
:100EC000F4DC6BE709280100F8B5044600251E464E
:100ED0001746880404D405E039462020B0476D1C2D
:100EE000641EF9D52846F8BDFFB50446002581B03B
:100EF0001E46C80301D5302700E02027880404D50A
:100F000005E038460399B0476D1C641EF9D52846A4
:100F100005B0F0BD0A68531C0B60107070470000EC
:100F20000349088000BF024909880029FBDC70479B
:100F3000C400002018E000BF00BF00BF00BF00BF1A
:100F400000BF00BF00BF00BF00BF00BF00BF00BFA9
:100F500000BF00BF00BF00BF00BF00BF00BF00BF99
:100F600000BF00BF411E88B20028E4DC70470000CB
:100F700086B0142101A8FFF7D8F8FFF701FA012085
:100F8000400205210907886200BFFFF771FBFFF7E8
:100F90004FFB012318A219461E20FFF7BBFC7D2042
:100FA000C000FFF7BDFFFFF743FB01214902052009
:100FB0000007FFF78EFA012312A202210020FFF79B
:100FC000A9FC17E011480078002813D000200F4931
:100FD00008700F48007800900E4803780E48027899
:100FE0000EA101A8FFF764FD002301AA19463F20C6
:100FF000FFF790FCE6E7000057656C6C636F6D656A
:10100000000000002D2D2D2D202D2D00C6000020CC
:10101000C7000020C8000020C9000020253032642D
:1010200020253032643A25303264000030B58DB06E
:1010300004460D46FE490A7810464A7812021043CB
:101040008A7812041043C97809060843F849091D33
:1010500005900A7810464A78120210438A781204E2
:101060001043C97809060843F149083106900A7807
:1010700010464A78120210438A7812041043C97845
:1010800009060843EA490C3107900A7810464A7865
:10109000120210438A7812041043C97809060843E3
:1010A000E349103108900A7810464A78120210433A
:1010B0008A7812041043C97809060843DC491431C0
:1010C00009900A7810464A78120210438A7812046E
:1010D0001043C97809060843D54918310A900A789F
:1010E00010464A78120210438A7812041043C978D5
:1010F00009060843CE491C310B900A7810464A78FD
:10110000120210438A7812041043C9780906084372
:101110000C9009A80FC803936B4607C305A80FC816
:10112000FFF70BFDC2490A7810464A7812021043B5
:101130008A7812041043C97809060843BC49091D7E
:1011400005900A7810464A78120210438A781204F1
:101150001043C97809060843B549083106900A7852
:1011600010464A78120210438A7812041043C97854
:1011700009060843AE490C3107900A7810464A78B0
:10118000120210438A7812041043C97809060843F2
:10119000A749103108900A7810464A781202104385
:1011A0008A7812041043C97809060843A04914310B
:1011B00009900A7810464A78120210438A7812047D
:1011C0001043C97809060843994918310A900A78EA
:1011D00010464A78120210438A7812041043C978E4
:1011E0000906084392491C310B900A7810464A7848
:1011F000120210438A7812041043C9780906084382
:101200000C907820049009A80FC803936B4607C37D
:1012100005A80FC8FFF76FFC85490A7810464A7881
:10122000120210438A7812041043C9780906084351
:101230007F49091D05900A7810464A78120210432A
:101240008A7812041043C97809060843784908319E
:1012500006900A7810464A78120210438A781204DF
:101260001043C9780906084371490C3107900A7880
:1012700010464A78120210438A7812041043C97843
:10128000090608436A49103108900A7810464A78DE
:10129000120210438A7812041043C97809060843E1
:1012A0006349143109900A7810464A7812021043B3
:1012B0008A7812041043C978090608435C4918313A
:1012C0000A900A7810464A78120210438A7812046B
:1012D0001043C9780906084355491C310B900A7818
:1012E00010464A78120210438A7812041043C978D3
:1012F000090608430C9009A80FC803936B4607C35F
:1013000005A80FC8FFF73DFC00287AD048490A78A5
:1013100010464A78120210438A7812041043C978A2
:10132000090608434249091D05900A7810464A7883
:10133000120210438A7812041043C9780906084340
:101340003B49083106900A7810464A781202104349
:101350008A7812041043C9780906084334490C31CD
:1013600007900A7810464A78120210438A781204CD
:101370001043C978090608432D49103108900A78AE
:1013800010464A78120210438A7812041043C97832
:10139000090608432649143109900A7810464A780C
:1013A000120210438A7812041043C97809060843D0
:1013B0001F4918310A900A7810464A7812021043E1
:1013C0008A7812041043C9780906084318491C3169
:1013D0000B900A7810464A78120210438A78120459
:1013E0001043C978090608430C9009A80FC8039355
:1013F0006B4607C305A80FC8FFF7B3FB0DB030BDA0
:10140000FFE70B490A7810464A78120210438A789F
:1014100012041043C978090608430549091D0590BF
:101420000A7810464A78120210438A78120401E0C2
:10143000D00000201043C97809060843FE490690F1
:101440000A7810464A78120210438A781204104330
:10145000C97809060843F849091D07900A7810461B
:101460004A78120210438A7812041043C978090698
:101470000843F149083108900A7810464A78120268
:1014800010438A7812041043C97809060843EA49D0
:101490000C3109900A7810464A78120210438A7873
:1014A00012041043C97809060843E34910310A9031
:1014B0000A7810464A78120210438A7812041043C0
:1014C000C97809060843DC4914310B900A781046A4
:1014D0004A78120210438A7812041043C978090628
:1014E000084304940C9009A80FC803936B4607C3E4
:1014F00005A80FC8FFF7FFFACF4908390A78104648
:101500004A78120210438A7812041043C9780906F7
:101510000843C949091F05900A7810464A78120203
:1015200010438A7812041043C97809060843C24957
:1015300006900A7810464A78120210438A781204FC
:101540001043C97809060843BB49091D07900A786A
:1015500010464A78120210438A7812041043C97860
:1015600009060843B449083108900A7810464A78B9
:10157000120210438A7812041043C97809060843FE
:10158000AD490C3109900A7810464A78120210438E
:101590008A7812041043C97809060843A649103115
:1015A0000A900A7810464A78120210438A78120488
:1015B0001043C978090608439F4914310B900A78F3
:1015C00010464A78120210438A7812041043C978F0
:1015D000090608430C9009A80FC803936B4607C37C
:1015E00005A80FC8FFF7CDFA934908390A781046C5
:1015F0004A78120210438A7812041043C978090607
:1016000008438D49091F05900A7810464A7812024E
:1016100010438A7812041043C978090608438649A2
:1016200006900A7810464A78120210438A7812040B
:101630001043C978090608437F49091D07900A78B5
:1016400010464A78120210438A7812041043C9786F
:10165000090608437849083108900A7810464A7804
:10166000120210438A7812041043C978090608430D
:1016700071490C3109900A7810464A7812021043D9
:101680008A7812041043C978090608436A49103160
:101690000A900A7810464A78120210438A78120497
:1016A0001043C97809060843634914310B900A783E
:1016B00010464A78120210438A7812041043C978FF
:1016C0000906084304950C9009A80FC803936B46BC
:1016D00007C305A80FC8FFF70EFA574908390A785B
:1016E00010464A78120210438A7812041043C978CF
:1016F000090608435049091F05900A7810464A78A0
:10170000120210438A7812041043C978090608436C
:10171000494906900A7810464A78120210438A789E
:1017200012041043C978090608434349091D07906C
:101730000A7810464A78120210438A78120410433D
:10174000C978090608433C49083108900A781046D0
:101750004A78120210438A7812041043C9780906A5
:10176000084335490C3109900A7810464A7812022C
:1017700010438A7812041043C978090608432E4999
:1017800010310A900A7810464A78120210438A787B
:1017900012041043C97809060843274914310B90F5
:1017A0000A7810464A78120210438A7812041043CD
:1017B000C978090608430C9009A80FC803936B4623
:1017C00007C305A80FC8FFF7DCF91B4908390A78D9
:1017D00010464A78120210438A7812041043C978DE
:1017E000090608431449091F05900A7810464A78EB
:1017F000120210438A7812041043C978090608437C
:101800000D4906900A7810464A78120210438A78E9
:1018100012041043C978090608430749091D0790B7
:101820000A7810464A78120210438A78120410434C
:10183000C9780906084301E0D80000202149089032
:101840000A7810464A78120210438A78120410432C
:10185000C978090608431B49091D09900A781046F2
:101860004A78120210438A7812041043C978090694
:101870000843144908310A900A7810464A7812023F
:1018800010438A7812041043C978090608430D49A9
:101890000C310B900A7810464A78120210438A786D
:1018A00012041043C978090608430C9009A80FC810
:1018B00003936B4607C305A80FC8FFF752F900BF93
:1018C0009CE50000E000002010B50420FFF732FB8B
:1018D00010BD000000B587B00120019002900320E8
:1018E000039000200490059001A92548FEF772FDA1
:1018F000244825490870020A4A70020C8A70000EBA
:10190000C87022480876020A4A76020C8A76000ECF
:10191000C8761F491C4801770A0A42770A0C827769
:10192000090EC1771B4818490874020A4A74020C50
:101930008A74000EC8741849134801750A0A427562
:101940000A0C8275090EC175144901710A0A4271A7
:101950000A0C8271090EC17111480B490872020A02
:101960004A72020C8A72000EC8720E490648017350
:101970000A0A42730A0C8273090EC17307B000BDD4
:1019800000040050C9180008D0000020A919000860
:10199000B9190008C9190008F5190008D719000875
:1019A000031A0008291A000810B501210148FEF7A2
:1019B00092FD10BD0004005010B501210148FEF752
:1019C00086FD10BD0004005010B5802105200007E1
:1019D000FEF781FD10BD00B587B08020019000208A
:1019E00002900120059001A905200007FEF7F2FCF6
:1019F00007B000BD10B5802105200007FEF767FD88
:101A000010BD00B587B08020019001200290032016
:101A10000390002004900120059001A905200007F3
:101A2000FEF7D8FC07B000BD802005210907096931
:101A30000140814201D1012100E00021C8B270477C
:101A40000000000000000000002F00000000070060
:101A5000070000147F147F1400242A7F2A120062DA
:101A60006408132300364955225000000503000086
:101A700000001C224100000041221C000014083E0E
:101A800008140008083E0808000000A060000008D4
:101A90000808080800006060000000201008040228
:101AA000003E5149453E0000427F400000426151E6
:101AB0004946002141454B31001814127F10002780
:101AC00045454539003C4A49493000017109050343
:101AD00000364949493600064949291E0000363674
:101AE00000000000563600000008142241000014D7
:101AF00014141414000041221408000201510906B4
:101B000000324959513E007C1211127C007F494934
:101B10004936003E41414122007F4141221C007F65
:101B200049494941007F09090901003E4149497A73
:101B3000007F0808087F0000417F410000204041ED
:101B40003F01007F08142241007F40404040007F59
:101B5000020C027F007F0408107F003E4141413E9D
:101B6000007F09090906003E4151215E007F0919E5
:101B700029460046494949310001017F0101003FE2
:101B80004040403F001F2040201F003F4038403F62
:101B900000631408146300070870080700615149C6
:101BA000454300007F41410000552A552A55000059
:101BB00041417F00000402010204004040404040D7
:101BC000000001020400002054545478007F48446F
:101BD000443800384444442000384444487F0038A6
:101BE0005454541800087E0901020018A4A4A47CCF
:101BF000007F080404780000447D40000040808499
:101C00007D00007F102844000000417F4000007CE0
:101C100004180478007C08040478003844444438EC
:101C200000FC242424180018242418FC007C080438
:101C3000040800485454542000043F444020003C11
:101C40004040207C001C2040201C003C4030403C98
:101C5000004428102844001CA0A0A07C0044645428
:101C60004C4414141414141400000000000000006C
:101C70000000000000000000000000F8000000006C
:101C8000000000333000000000100C06100C0600AD
:101C9000000000000000000040C07840C078400014
:101CA000043F04043F040400007088FC0830000076
:101CB000001820FF211E0000F008F000E0180000CE
:101CC00000211C031E211E0000F008887000000087
:101CD0001E2123241927211010160E0000000000D9
:101CE0000000000000000000000000E018040200F6
:101CF000000000071820400000020418E000000067
:101D00000040201807000000404080F08040400064
:101D10000202010F01020200000000F000000000BA
:101D20000101011F0101010000000000000000008E
:101D300080B0700000000000000000000000000003
:101D4000000101010101010100000000000000008C
:101D50000030300000000000000000008060180427
:101D6000006018060100000000E010080810E00004
:101D7000000F102020100F00001010F800000000CD
:101D80000020203F20200000007008080888700014
:101D90000030282422213000003008888848300094
:101DA0000018202020110E000000C02010F80000B4
:101DB00000070424243F240000F80888880808004D
:101DC0000019212020110E0000E010888818000062
:101DD000000F112020110E0000380808C838080034
:101DE0000000003F000000000070880808887000B4
:101DF000001C222121221C0000E010080810E00035
:101E00000000312222110F00000000C0C0000000BD
:101E100000000030300000000000008000000000E2
:101E200000008060000000000000804020100800DA
:101E300000010204081020004040404040404000A3
:101E4000040404040404040000081020408000007E
:101E50000020100804020100007048080808F00083
:101E60000000003036010000C030C828E810E00053
:101E70000718272423140B000000C038E0000000DE
:101E8000203C23020227382008F888888870000048
:101E9000203F202020110E00C0300808080838001C
:101EA000071820202010080008F808080810E00093
:101EB000203F202020100F0008F88888E808100034
:101EC000203F20202320180008F88888E808100008
:101ED000203F200003000000C03008080838000040
:101EE00007182020221E020008F808000008F80841
:101EF000203F210101213F20000808F808080000C8
:101F00000020203F2020000000000808F8080800FA
:101F1000C08080807F00000008F888C02818080072
:101F2000203F20012638200008F8080000000000AB
:101F3000203F20202020300008F8F800F8F80800A2
:101F4000203F003F003F200008F830C00008F8089C
:101F5000203F200007183F00E01008080810E000AC
:101F60000F10202020100F0008F808080808F000C3
:101F7000203F210101010000E01008080810E000E6
:101F80000F18242438504F0008F88888888870007B
:101F9000203F2000030C302000708808080838001B
:101FA0000038202121221C00180808F80808180011
:101FB0000000203F2000000008F808000008F80892
:101FC000001F202020201F000878880000C8380843
:101FD000000007380E010000F80800F80008F800BB
:101FE000033C0700073C0300081868808068180855
:101FF00020302C03032C30200838C800C8380800D3
:102000000000203F2000000010080808C838080021
:102010002038262120201800000000FE02020200C5
:102020000000007F40404000000C30C00000000075
:10203000000000010638C00000020202FE0000009D
:10204000004040407F000000000004020202040043
:102050000000000000000000000000000000000080
:102060008080808080808080000202040000000068
:102070000000000000000000000080808080000060
:102080000019242222223F2008F80080800000004E
:10209000003F112020110E00000000808080000011
:1020A000000E112020201100000000808088F80020
:1020B000000E112020103F20000080808080000052
:1020C000001F222222221300008080F088888818B6
:1020D0000020203F202000000000808080808000C1
:1020E000006B94949493600008F800808080000056
:1020F000203F210000203F20008098980000000031
:102100000020203F20200000000000809898000060
:1021100000C08080807F000008F800008080800080
:10212000203F24022D302000000808F800000000A5
:102130000020203F20200000808080808080800060
:10214000203F20003F20003F8080008080800000F2
:10215000203F210000203F20000080808080000080
:10216000001F202020201F008080008080000000B1
:1021700080FFA12020110E000000008080808000E0
:10218000000E112020A0FF808080800080808000D1
:1021900020203F21200001000000808080808000FE
:1021A0000033242424241900008080E08080000073
:1021B0000000001F202000008080000000808000C0
:1021C000001F202020103F20808080000080808021
:1021D00000010E30080601008080008000808080B1
:1021E0000F300C030C300F000080800080808000D6
:1021F0000020312E0E312000808080000080808001
:1022000080818E70180601000080808080808000B0
:102210000021302C2221300000000000807C0202CE
:1022200000000000003F404000000000FF000000F0
:1022300000000000FF0000000002027C800000009F
:102240000040403F000000000006010102020404BB
:10225000000000000000000000000000008080C0BE
:1022600040404040C0808000000000000000F0FCC2
:10227000FF0F01000000000000010FFEFCE0000065
:1022800000003FFFFFC00000000000000000C0FF92
:10229000FF1F000000000000010307040C08080CE9
:1022A000040703010000000000000000000000001F
:1022B0008080C0000000000000000000000000005E
:1022C0000001010101FFFF0000000000000000000C
:1022D000000000000000000000FFFF000000000000
:1022E0000000000000000000000808080C0F0F0E9E
:1022F0000C0808080000000000000000808040403A
:102300004040404040C08080000000000000001FAE
:102310001F180000000000000080F77F3E00000052
:102320000000000080C060301008040603010000B7
:10233000C000000000000E0F0D0C0C0C0C0C0C0C5F
:102340000C0C0E0E0F0000000000000080804040CA
:1023500040404040C0808000000000000000000FAE
:102360000F0C000000008080C0637F3F0000000071
:10237000000080C0C0C000000101010101028EFC0C
:10238000F80000000000000307040408080808081B
:102390000406070301000000000000000000000028
:1023A00000000000C0C000000000000000000000AD
:1023B0000080C020180C0601FFFF00000000000094
:1023C000001018141311101010101010FFFF10102F
:1023D0001010100000000000000000000808080CA9
:1023E0000F0F0C080808000000000000C0C0C0C0AB
:1023F000C0C0C0C0C0C0C0C0C0000000000000001D
:10240000FF80804040404040C0C08080000000000D
:10241000000080C2E3C1000000000000000083FF54
:10242000FE00000000000003030404080808080878
:102430000406070301000000000000000000808087
:102440004040404040C0C080000000000000E0FC70
:10245000FE078180C040404040C3838301000000EC
:1024600000003FFFFF83010000000000000001FFAB
:10247000FF7C000000000000030306040C080808AD
:10248000080406030100000000000080C0C0C0C0B6
:10249000C0C0C0C0C0C0C0C0C04000000000000735
:1024A00001000000000000C070180E0301000000D1
:1024B0000000000000000080F0FEBF0100000000EE
:1024C0000000000000000000000000070F0F0700E0
:1024D000000000000000000000000000808040407C
:1024E0004040404040C080000000000000000C3F21
:1024F0007F60E0C08080800080C0613F1E000000DF
:102500000000F8FC0E0201010101030307060EFCA6
:10251000F86000000000010302040408080808082D
:102520000404060301000000000000008080C04099
:102530004040404040808000000000000000FCFF60
:10254000C701000000000000000087FFFCF0000051
:102550000000010307060404040404040683F9FFD1
:102560003F0700000000000307070C0808080404E8
:102570000603010000000000000000000000000051
:10258000000000000000000000000000000000004B
:10259000000000000000000000000000000000003B
:1025A000000000000000000000000000000000002B
:1025B00000000000000000060F0F060000000000F1
:1025C000000000000000000000000000000000000B
:1025D00000000000000000000000000000000000FB
:1025E00000000000000000000000000000000000EB
:1025F00000010101010101010101010101010101CC
:1026000001010100000000000000000000000000C7
:1026100000000000000000000000000004040400AE
:102620000008000000080000080000000800020484
:1026300006080A0C00010203040506005C260008D7
:1026400000000020D0000000D80A00082C27000855
:10265000D000002020040000E80A0008000000006C
:10266000000000000000000000000000000000006A
:10267000000000000000000000000000000000005A
:10268000000000000000000000000000000000004A
:10269000000000000000000000000000000000003A
:1026A000000000000000000000000000000000002A
:1026B000000000000000000000000000000000001A
:1026C000000000000000000000000000000000000A
:1026D00000000000000000000000000000000000FA
:1026E00000000000000000000000000000000000EA
:1026F00000000000000000000000000000000000DA
:1027000000000000000000000000000000000000C9
:1027100000000000000000000000000000127A002D
:0C2720000000000000000000E8030000C2
:04000005080000C12E
:00000001FF
